:020000040800F2
:10000000F81800209D010008955B00088D3D000850
:100010007D58000891190008717400080000000064
:1000200000000000000000000000000085620008E1
:10003000772D000800000000695D0008B501000888
:10004000B7010008B7010008B7010008B7010008B0
:10005000B7010008B7010008952D0008A72D00087A
:10006000B7010008B7010008B92D0008B701000862
:10007000B7010008B7010008B7010008B701000880
:10008000B7010008B7010008B7010008E11A00082D
:10009000A51A0008B7010008B7010008B701000859
:1000A000B7010008B7010008B7010008B701000850
:1000B00019680008B7010008B7010008B701000877
:1000C000B7010008B7010008B7010008B701000830
:1000D000B7010008F96C0008B70100088D6E000830
:1000E000B7010008B7010008B7010008B701000810
:1000F000B7010008B7010008B7010008B701000800
:10010000B7010008B7010008B7010008B7010008EF
:10011000B7010008B701000899680008B701000896
:10012000B7010008B7010008B7010008B7010008CF
:10013000B7010008B7010008B70100083D1C00081E
:100140000D1C0008B7010008B7010008B70100083E
:10015000B7010008B7010008B7010008B70100089F
:10016000B7010008B7010008B7010008B70100088F
:10017000B7010008B7010008B7010008B70100087F
:10018000B7010008B7010008DFF80CD001F058FAF9
:100190000048004755810008F818002006488047AD
:1001A00006480047FEE7FEE7FEE7FEE7FEE7FEE75C
:1001B000FEE7FEE7FEE7FEE7756700088901000835
:1001C00010B50446FE48007820B104280ED005285A
:1001D0002FD11CE05A2C07D1FA4804700420F849AA
:1001E00008700120F8490870002010BDF64800781A
:1001F000042802D10520F2490870F34801780078FC
:10020000401CF14A1070EF4844540020EDE70020F4
:10021000EB490870EB48EC4909784454062100F09A
:1002200060FE20B10020E8490870E648DDE70020C4
:10023000DBE70020E2490870E349087000BFD4E71B
:1002400070B505460E46E148007810B104286AD121
:1002500041E02846FFF7B4FF0446002C39D00020C7
:10026000DB4908702178DA4802780078401CD84BC6
:100270001870D84881546178184602780078401C7C
:100280001870D4488154A178184602780078401C30
:100290001870D0488154E178184602780078401CE4
:1002A0001870CC4881542179184602780078401C97
:1002B0001870C84881546279184601780078401C4B
:1002C0001870C44842546078C34908700420BF497C
:1002D0000870002070BDBE4801780078401CBC4A00
:1002E0001070BC484554BC48007808301146097865
:1002F000884216D10020B5490870B748007800F14F
:100300000801B44800F02FFE48B1B348007800F16E
:100310000802B049304600F05FFE0120DAE7002015
:10032000D8E70020D6E70020D4E770B506460C4693
:1003300015465A2028706C700621284600F0E8FD0A
:100340002246B11DA81D00F047FE04F10801284611
:1003500000F027FE04F10800C0B270BD00B970477C
:10036000417000BFFBE700B97047017100BFFBE7B8
:100370000146087970470146881D7047F0B58DB079
:1003800005463421684600F040FE6C46A61D11204B
:1003900060700020A070E07820F00F00E070E0783E
:1003A00020F0F000E0704520207168B23070280A1B
:1003B00040B27070280C40B2B070280E40B2F0709D
:1003C00061786A466846FFF7B0FF07461FB13946B5
:1003D000684606F0CBFB0DB0F0BD2DE9F04F8DB0B7
:1003E00006460F4690469946DDF858B034216846D7
:1003F00000F00BFE6C46A51D0C2060700020A07064
:10040000E07820F00F00E070E07820F0F000E0707D
:100410004120207130B2688038B228800FFA88F00D
:10042000A8800FFA89F028810FFA8BF0E8801798DE
:1004300000B2688161786A466846FFF776FF8246B7
:10044000BAF1000F03D05146684606F08FFB0DB09D
:10045000BDE8F08F2DE9F04F8DB006460F4690466F
:100460009946DDF858B03421684600F0CEFD6D465F
:10047000AC1D122068700020A870E87820F00F00F2
:10048000E870E87820F0F000E8704020287130B281
:10049000208038B260800FFA88F0A0800FFA89F0CF
:1004A000E0800FFA8BF02081179800B260811898D5
:1004B00000B2A081199800B2E0811A9800B220829F
:1004C00069786A466846FFF730FF8246BAF1000F46
:1004D00003D05146684606F049FB0DB0BDE8F08FE9
:1004E0002DE9F04F8DB006460F4690469946DDF84F
:1004F00058B03421684600F088FD6C46A51D0C20DC
:1005000060700020A070E07820F00F00E070E078CC
:1005100020F0F000E0704220207130B2288038B224
:1005200068800FFA88F0A8800FFA89F0E8800FFA47
:100530008BF02881179800B2688161786A46684616
:10054000FFF7F3FE8246BAF1000F03D0514668462A
:1005500006F00CFB0DB0BDE8F08F2DE9F04F8DB02B
:1005600006460F4690469946DDF858B03421684655
:1005700000F04BFD6D46AC1D112068700020A87086
:10058000E87820F00F00E870E87820F0F000E870DC
:1005900044202871641C04F8016C38B220800FFAE2
:1005A00088F060800FFA89F0A0800FFA8BF0E0806D
:1005B000179800B22081189800B260811A980DE057
:1005C000C4050020E80B0020C5050020C805002058
:1005D000C7050020F20B0020C605002000B2E08114
:1005E000199800B2A081641E69786A466846FFF7D0
:1005F0009CFE8246BAF1000F03D05146684606F0D1
:10060000B5FA0DB0BDE8F08F2DE9F0418EB005468A
:100610000E46342101A800F0F8FC01AC0DF10A08E7
:10062000112060700020A070E07820F00F00E070D2
:10063000E07820F0F000E0702571002088F80000DC
:1006400088F80160617801AA01A8FFF76EFE0746ED
:100650001FB1394601A806F089FA0EB0BDE8F08155
:10066000704770B52DED0C8B8EB0B0EE408AF0EE79
:10067000608AB0EE419AF0EE619AB0EE42AAF0EED6
:1006800062AAB0EE43BAF0EE63BAB0EE44CAF0EE3E
:1006900064CAB0EE45DAF0EE65DA342101A800F064
:1006A000B4FC01ADAC1D182068700020A870E8787B
:1006B00020F00F00E870E87820F0F000E8704820A3
:1006C0002871BDEEC80A10EE100A00B22080BDEEFF
:1006D000E80A10EE100A00B26080BDEEC90A10EE02
:1006E000100A00B2A080BDEEE90A10EE100A00B2B6
:1006F000E080BDEECA0A10EE100A00B22081BDEE05
:10070000EA0A10EE100A00B26081BDEECB0A10EECC
:10071000100A00B2A081BDEEEB0A10EE100A00B282
:10072000E081BDEECC0A10EE100A00B22082BDEED0
:10073000EC0A10EE100A00B26082BDEECD0A10EE97
:10074000100A00B2A082BDEEED0A10EE100A00B24F
:10075000E082697801AA01A8FFF7E7FD06461EB10D
:10076000314601A806F002FA0EB0BDEC0C8B70BD4C
:1007700010B5044600BF00BF00BF00BF002CFDD075
:1007800000BF00BF00BF0029FDD000BF00BF00BFF9
:10079000002AFDD000BF00BF00BF002BFDD000BF6E
:1007A00072B6216002FB0310401E6060A36000204F
:1007B000E06022746161A16162B6002010BD2DE984
:1007C000F04104460D460026002700BF00BF002C64
:1007D000FDD000BF00BF00BF002DFDD000BF1C201A
:1007E00007F0D8FC064616B90020BDE8F08104FBEE
:1007F00005F007F0CFFC07460FB90020F5E72B46C0
:10080000224639463046FFF7B3FF3046EDE710B5D4
:10081000044600BF00BF002CFDD000BF00BF00BFDA
:1008200020680028FCD000BF206807F04DFC20465F
:1008300007F04AFC10BD034600BF00BF00BF00BF69
:10084000002BFDD000BF00BF00BF0029FDD000BFBE
:1008500000BF00BF002AFDD000BF72B61960881823
:10086000401E58609A600020D8601961596162B6D4
:100870000020704770B504460025002600BF00BF69
:10088000002CFDD000BF182007F084FC05460DB9F0
:10089000002070BD204607F07DFC06460EB9002002
:1008A000F7E7224631462846FFF7C5FF2846F0E71E
:1008B00010B5044600BF00BF002CFDD000BF00BF34
:1008C00000BF20680028FCD000BF206807F0FCFBB8
:1008D000204607F0F9FB10BD30B5024600230C4658
:1008E00000BF00BF00BF00BF002AFDD000BF00BF97
:1008F00000BF0029FDD000BF906810B94FF0FF3055
:1009000030BD002310E055689069A84201D91068F5
:10091000906114F8010B9569287072B69069401CBB
:10092000906162B6581CC3B2107C9842EBDC72B680
:100930009068401E9060D068401CD06062B6002075
:10094000DEE7024600BF00BF00BF00BF002AFDD0A7
:1009500000BF906810B94FF0FF30704772B6506911
:100960005368984201D9106850615069017050690C
:10097000401C50619068401E9060D068401CD06060
:1009800062B60020E9E770B503460C46002500BFBB
:1009900000BF00BF00BF002BFDD000BF986810B99A
:1009A0004FF0FF3070BD002119E0986810B94FF08A
:1009B000FF3516E072B65E685869B04201D9186812
:1009C0005861605C5E6930705869401C5861986875
:1009D000401E9860D868401CD86062B6491C91429D
:1009E000E3D300BF2846DDE730B5024600230C46BE
:1009F00000BF00BF00BF00BF002AFDD000BF00BF86
:100A000000BF0029FDD000BFD06810B94FF0FF3003
:100A100030BD002310E055685069A84201D9106824
:100A200050615069007804F8010B72B65069401C9F
:100A3000506162B6581CC3B2107C9842EBDC72B6AF
:100A40009068401C9060D068401ED06062B6002064
:100A5000DEE70146002000BF00BF00BF00BF002945
:100A6000FDD000BF72B60A694B689A4201D90A6884
:100A70000A610A6910780A69521C0A618A68521C64
:100A80008A60CA68521ECA6062B6704770B5024674
:100A900000230C4600BF00BF00BF00BF002AFDD0EE
:100AA00000BF00BF00BF0029FDD000BFD06810B953
:100AB0004FF0FF3070BD72B6167CD068401E55698D
:100AC00006FB00501568451BD2E90060801B401CE6
:100AD000B5FBF0F600FB1650156828445061D2E9CA
:100AE0000250401E284490600120D06062B600236E
:100AF00010E055685069A84201D9106850615069EA
:100B0000007804F8010B72B65069401C506162B65F
:100B1000581CC3B2107C9842EBDC72B69068401C43
:100B20009060D068401ED06062B60020C2E710B569
:100B30000146002000BF00BF00BF00BF0029FDD05C
:100B400000BF72B6D1E903321A44521E0B68D31AA1
:100B5000D1E90042121B521CB3FBF2F402FB143227
:100B60000B681A440A610A691078D1E902231A4411
:100B70008A600022CA6062B610BD70B503460C469A
:100B8000154600222E46002100BF00BF002BFDD0DD
:100B900000BF00BF00BF002DFDD000BFD868A0423D
:100BA00002D84FF0FF3070BD5969002206E0586846
:100BB000884200D21968491C501CC2B2187C60439C
:100BC0009042F4DC002209E05868884200D219689B
:100BD000087806F8010B491C501CC2B2187C9042E0
:100BE000F2DC0020DFE710B502460B4600240021AE
:100BF00000BF00BF002AFDD000BF1169002406E03D
:100C00005068884200D21168491C601CC4B29C42E2
:100C1000F6DB087810BD014600BF00BF0029FDD0FB
:100C200000BFC86808B9012070470020FCE70146F2
:100C300000BF00BF0029FDD000BFC86808B901206F
:100C400070470020FCE7014600BF00BF0029FDD02F
:100C500000BF886808B9012070470020FCE7014602
:100C600000BF00BF0029FDD000BF886808B901207F
:100C700070470020FCE7014600BF00BF0029FDD0FF
:100C800000BFC8687047014600BF00BF0029FDD003
:100C900000BFC8687047014600BF00BF0029FDD0F3
:100CA00000BF88687047014600BF00BF0029FDD023
:100CB00000BF88687047014600BF00BF00BF00BF8B
:100CC0000029FDD000BF72B6D1E90020801A0A7C4D
:100CD00090FBF2F088600020C860086848610868EE
:100CE000886162B600207047014600BF00BF00BFA8
:100CF00000BF0029FDD000BF72B6D1E90020801AE4
:100D000088600020C860086808610868486162B6A9
:100D1000002070470022026041607047416800294E
:100D200002DC9FED170A70470268511C01604168A0
:100D30008A4201DB41680160016800EE101AF8EE9A
:100D4000C00A416800EE101AB8EEC01A80EE810A9F
:100D500010EE101A8160816800EE101AE3E701605E
:100D60007047002101607047416070470146086884
:100D70004A68904201DB012070470020FCE7000038
:100D80000000000008B100210160704710B1026846
:100D90000A440260704702468A4201D3012070472C
:100DA0000020FCE79FED460A80ED000A9FED440A13
:100DB00080ED010A9FED420A80ED070A9FED400A8F
:100DC00080ED080A9FED3E0A80ED090A9FED3C0A7E
:100DD00080ED0D0A704790ED030A80ED020A90ED58
:100DE000000AD0ED010A30EE600A80ED030A90EDB2
:100DF000040AD0ED030A20EE200A80ED070A90EDE8
:100E0000080AD0ED050A90ED031A00EE810A80ED84
:100E1000080A90ED030AD0ED020A30EE600AD0ED28
:100E2000060A20EE200A80ED090A90ED080AD0EDAE
:100E30000B0AF1EE600AB4EEE00AF1EE10FA06D801
:100E400090ED0B0AB1EE400A80ED080A0CE090ED3F
:100E5000080AD0ED0B0AB4EEE00AF1EE10FA03DB5B
:100E600090ED0B0A80ED080A90ED070AD0ED080A14
:100E700030EE200AD0ED090A30EE200A80ED0D0A8E
:100E800090ED0D0AD0ED0E0AF1EE600AB4EEE00A24
:100E9000F1EE10FA06D890ED0E0AB1EE400A80EDA0
:100EA0000D0A0CE090ED0D0AD0ED0E0AB4EEE00A4A
:100EB000F1EE10FA03DB90ED0E0A80ED0D0A70479B
:100EC0000000000030B5034605E013F8010B80EA8E
:100ED00002041848025D0800A1F10101F5D1104695
:100EE00030BD70B505460C4600260DB1022C01D868
:100EF000002070BD611E77222846FFF7E3FF0646FB
:100F0000601E285CB04201D10120F2E70020F0E72A
:100F100070B505460C4600260DB1022C00D870BDF8
:100F2000611E77222846FFF7CDFF0646601E2E542D
:100F300000BFF4E76F82000830B5034613B94FF6DF
:100F4000FF7030BD09E013F8014B82EA0400C0B223
:100F50001F4D35F8100080EA22220800A1F101019E
:100F6000F1D11046EDE770B505460C4600260DB1EF
:100F7000022C01D8002070BDA11E16480288284608
:100F8000FFF7DAFF0646F1B2A01E285C814206D1C7
:100F9000601E285CB0EB162F01D10120EBE700208A
:100FA000E9E770B505460C4600260DB1022C00D8C5
:100FB00070BDA11E074802882846FFF7BDFF064600
:100FC000A01E2E54310A601E295400BFF0E7000015
:100FD00070830008CA05002040EA01039B0703D084
:100FE00009E008C9121F08C0042AFAD203E011F868
:100FF000013B00F8013B521EF9D27047D2B201E02A
:1010000000F8012B491EFBD270470022F6E710B50D
:1010100013460A4604461946FFF7F0FF204610BD66
:101020002DE9FE4F804681EA0300C00F0C46009078
:1010300021F0004123F00045B8EB0200A94105D2A0
:101040004046214690461C460B46024623F000408F
:10105000104347D0270DC7F30A00C3F30A5102908B
:10106000401A019040286BDAC3F3130040F4801B50
:101070000098924620B10023D2EB030A63EB0B0BDE
:1010800001985946C0F14002504600F0C3F90646A7
:101090000D4650465946019A00F0DBF910EB080066
:1010A0006141002487EA115284EAE7731A4340D071
:1010B000009A62B3019A012A4FEA075215DC001B1D
:1010C00061EB02014FF0004202EA0752CDE9004213
:1010D000001C41F5801132462B4600F012FA03B095
:1010E000BDE8F08F40462146F9E7001B61EB0201A5
:1010F000001C41F5801300185B412018A2F5001771
:1011000047EB030140EAD570B6196D4111E06D0857
:101110004FEA360645EAC0754FEA0752001B61EBFD
:101120000201001C41F5801149084FEA3000001906
:10113000514132462B4603B0BDE8F04F00F0D2B922
:101140000098012240000023D0EB020263EBE07321
:10115000009821464FEAE074B8EB000061EB04010F
:10116000E9E783F000435BE781F0004158E72DE9B0
:10117000FE4F81EA030404F0004421F00041009492
:101180004FF0000B23F0004350EA01045ED052EA16
:1011900003045BD0C3F30A54C1F30A552C44A4F2F0
:1011A000F3340194A0FB0254C1F3130141F4801104
:1011B000C3F3130343F4801301FB024400FB034E0B
:1011C000840A970A44EA815447EA8357A4FB0768D4
:1011D00002958D0A05FB07854FEA932C04FB0C54FE
:1011E0002705029D4FEA065847EA1637B5EB080572
:1011F0006EEB070C870E920E47EA811742EA8312C4
:10120000A7FB0201B6EB0B0164EB00042B0D43EAD4
:101210000C335E1844EB1C50DA465146E7FB0201E2
:10122000C5F313044FEA0B3343EA14534FEA043275
:10123000019C43EA0603A4F10C040294009CCDE94E
:1012400000B400F05EF903B0BDE8F08F0020014665
:10125000F9E72DE9F04D81EA030404F0004B21F099
:10126000004514464FF0000A23F0004150EA050201
:1012700020D054EA01021DD0C5F30A570246C5F337
:101280001303C1F31300C1F30A5640F4801543F46D
:101290008013A7EB0608101BD64608F2FD3873EB47
:1012A000050002D308F1010801E092185B41B8F192
:1012B000000F03DA00200146BDE8F08D00204FF456
:1012C0008011064684460EE0171B73EB050705D315
:1012D000121B63EB050306434CEA010C49084FEA75
:1012E000300092185B4150EA0107EDD152EA030049
:1012F00012D082EA040083EA0501084305D0101BDE
:10130000AB4106D20122002306E000224FF0004349
:1013100002E06FF0010253101AEB06004CEB08518B
:1013200010EB0A0041EB0B01BDE8F04D00F0DAB81C
:101330000EB5C10F80EAE0700844CA07002140F2F0
:1013400033438DE80E000A460B4600F0DAF803B08E
:1013500000BDC1F30A5210B5C1F3130140F2FF33CF
:1013600041F480119A4201DA002010BD40F233436B
:101370009A42A2F2334203DC524200F05AF810BD06
:10138000904010BD00F0004230F000400AD0C10D86
:1013900001F56071C0F3160042EA0151C20840072E
:1013A00011437047002001467047000030B5041E0D
:1013B00071F1000404DB4FF00044404264EB010192
:1013C000141E73F1000405DB1C464FF0004352422B
:1013D00063EB0403994208BF904230BD01F0004323
:1013E00030B421F0004150EA010206D00A0DA2F506
:1013F0006072C1F31301002A02DC30BC0020704788
:10140000440F44EAC104C100E01830BC00EBC250F4
:1014100000F031B8202A04DB203A00FA02F1002063
:1014200070479140C2F1200320FA03F31943904022
:101430007047202A04DB203A21FA02F0002170478D
:1014400021FA02F3D040C2F120029140084319462C
:101450007047202A06DBCB17203A41FA02F043EA14
:10146000E07306E041FA02F3D040C2F1200291405D
:101470000843194670470029A8BF7047401C49001F
:1014800008BF20F00100704710B4B0FA80FC00FAE9
:101490000CF050EA010404BF10BC704749B1CCF114
:1014A000200421FA04F411FA0CF118BF01212143A0
:1014B0000843A3EB0C01CB1D4FEA00614FEA10205B
:1014C00042BF002010BC704700EBC35010440029FD
:1014D000A4BF10BC7047401C490008BF20F00100A9
:1014E00010BC704710B5141E73F1000408DA401CDC
:1014F00041F1000192185B411A4301D120F0010033
:1015000010BD2DE9F04D92469B4611B1B1FA81F222
:1015100002E0B0FA80F220329046FFF77BFF0446EB
:101520000F4640EA0A0041EA0B0153465A46084377
:1015300013D0114653EA010019D0C8F140025046B9
:10154000FFF777FF05460E46504659464246FFF7DD
:1015500061FF084305D0012004E020463946BDE87C
:10156000F08D0020054346EAE0762C4337430A9885
:101570006305E40AA0EB08000022FD0A44EA475490
:101580000A3002D500200146E9E70105101969413A
:10159000DDE9084500196941BDE8F04DA2E72DE9F4
:1015A000F04D00231A461B1A8A4103DB0020014636
:1015B000BDE8F08DC1F30A52C1F3130141F4801567
:1015C0004FF0000BD10702D100186D41521E0027C9
:1015D000044640F2FF11384601EB620A3E4680465F
:1015E000024600204FF48011FFF723FFC21971411A
:1015F000BB1846EB0100B4EB030C75EB000C04D3F5
:10160000E41A65EB000517460E46241908F101009F
:101610006D4180463428E3DDF91946EB0600091BCD
:10162000A84103D24FF0FF32134601E000221346D7
:101630001BEB070046EB0A51BDE8F04DFFF752BF28
:10164000064C074D06E0E06840F0010394E807000F
:1016500098471034AC42F6D3FEF79AFD6086000836
:101660008086000870B58C1810F8015B15F0070330
:1016700001D110F8013B2A1106D110F8012B03E02B
:1016800010F8016B01F8016B5B1EF9D12B0705D433
:101690000023521E0DD401F8013BFAE710F8013B7C
:1016A000CB1A921C03E013F8015B01F8015B521E98
:1016B000F9D5A142D8D3002070BD000000B597B085
:1016C0005822434901A8FFF787FC9DF804005A28D7
:1016D00010D19DF80D005A280CD19DF814005A28FD
:1016E00008D101203B490870572201A93A48FFF769
:1016F00073FC07E00020374908703749C1F8010042
:101700005A2008703448407A5A2808D000213248BC
:101710004172A0F8071000202F49A1F805002E48BB
:10172000007C5A2809D000212B48017400202A4946
:101730004881002128488181C181274890F82300F1
:101740005A2820D00021244880F823100020224964
:10175000A1F8110000212048A0F81310A0F81510DE
:10176000B7EE000A10EE100A1B49C1F81700B7EED9
:10177000000A10EE100AC1F81B00B7EE000A10EEC6
:10178000100AC1F81F00144890F836005A281DD0DE
:101790000021114880F8361000200F49888400216C
:1017A0000D48C1840185B7EE000A10EE100A0A49FF
:1017B000C1F82A00B7EE000A10EE100AC1F82E0098
:1017C000B7EE000A10EE100AC1F8320017B000BDE3
:1017D00000000E08F40000207609002010B5012456
:1017E00057220349034800F057F80446204610BD2D
:1017F0007609002000000E0801461C48814201D2F3
:10180000002070471A48814201D20820F9E71948A0
:10181000814201D21020F4E71748814201D21820FA
:10182000EFE71648814201D22020EAE714488142BE
:1018300001D22820E5E71348814201D23020E0E7B9
:101840001148814201D23820DBE71048814201D2A1
:101850004020D6E70E48814201D24820D1E70D480A
:10186000814201D25020CCE75820CAE7004000084E
:101870000080000800C00008000001080000020805
:1018800000000408000006080000080800000A081C
:1018900000000C0800000E082DE9FC5F04460D4610
:1018A00090464FF008090120019000264FF0000AF1
:1018B00000274FF0000B00200090B4F1006F01D220
:1018C000BDE8FC9F01F01AFC002001F06DFB2646EC
:1018D00004EB080A3046FFF78FFF83465046FFF7B8
:1018E0008BFF00901648864211D25F460BE0022122
:1018F000384601F06BFB8146B9F1080F02D0002099
:10190000019003E0083700988742F0D900BFB9F191
:10191000080F0ED10AE02978204601F0C9FB0828FB
:1019200002D00020019003E0641C6D1C5445F2D3EA
:1019300000BF012001F038FB01F0B0FB0198BFE7C8
:101940000000FF1F10B54FF4A06004F061F904F02F
:1019500077F903F0C7FB04F041FF03F0DFFD04F06B
:1019600075FF04F003FA00F015F800F0C7F8074817
:1019700005F016F905F028FA04F0A2FF03F0D8FDEF
:1019800003F0CAFC01F008FB10BD0000A0860100B6
:1019900000BFFEE700B58BB00121084604F018FA3D
:1019A0000121480604F024FA09220B213B4801F0EA
:1019B000FDFC09220C21394801F0F8FC4FF4C0501D
:1019C000029002208DF80C0002A9344801F0A6FC18
:1019D00014208DF8040002208DF8050001208DF8F8
:1019E00006008DF8070001A804F0D6F813208DF842
:1019F000040001208DF805008DF806008DF8070021
:101A000001A804F0C9F8264800F096F908A800F0EB
:101A1000CEFB00208DF826008DF827008DF82800D9
:101A20008DF829008DF82A0001208DF82B00002068
:101A30008DF822008DF8230008208DF82400032063
:101A40008DF82500ADF8200008A9154800F0ADFA82
:101A500000208DF81A008DF81B0001208DF81C0065
:101A60000020ADF81000ADF81200ADF81400ADF88C
:101A70001600ADF8180001208DF81D0004A800F034
:101A800077F901220221064800F086FA0122114668
:101A9000034800F081FA0BB000BD000000000240D6
:101AA0000064004000B585B002210B4800F0E4F965
:101AB00078B10421084800F0EBF80849064800F026
:101AC000CBF86A460021044800F0F9FA684600F0B5
:101AD0002FFE05B000BD0000006400400800003289
:101AE00010B50121044800F0C7F918B101210248DE
:101AF00000F0CEF810BD00000064004000B58BB0CF
:101B00000121022004F064F90121880604F070F933
:101B100009220C213B4801F049FC09220D213948DA
:101B200001F044FC4FF44050029002208DF80C006C
:101B300002A9344801F0F2FB40208DF80400012096
:101B40008DF805008DF806008DF8070001A804F057
:101B500023F83F208DF8040000208DF805000120B7
:101B60008DF806008DF8070001A804F015F8264846
:101B700000F0E2F808A800F01AFB00208DF826001B
:101B80008DF827008DF828008DF829008DF82A009F
:101B900001208DF82B0000208DF822008DF8230005
:101BA00008208DF8240003208DF82500ADF82000D2
:101BB00008A9154800F0F9F90E208DF81A00002048
:101BC0008DF81B0001208DF81C000020ADF81000DE
:101BD000ADF81200ADF81400ADF81600ADF818001D
:101BE00001208DF81D0004A800F0C2F80122022196
:101BF000054800F0D1F901221146034800F0CCF964
:101C00000BB000BD000402400068004000B585B084
:101C10000221094800F030F958B10221064800F0CD
:101C200037F86A460021044800F049FA684600F097
:101C30007FFD05B000BD00000068004010B5012127
:101C4000044800F019F918B10121024800F020F809
:101C500010BD00000068004000220C4B994202D1E8
:101C60000023836111E0C1F3130201F000730BB193
:101C7000C2600AE001F080630BB1026105E001F08F
:101C800000630BB1826000E0426070477000F0308A
:101C9000B1F5007F3AD00FDC202928D006DC0129DD
:101CA0001CD004291DD0082940D11DE0402921D095
:101CB000B1F5807F3AD126E0B1F5004F31D006DC96
:101CC000B1F5806F25D0B1F5006F2FD124E0B1F5CB
:101CD000803F12D0B1F5003F28D111E0154A826053
:101CE00025E00822C26022E01022C2601FE0082224
:101CF00002611CE01022026119E00822426016E035
:101D00001022426013E00422426010E0042242608C
:101D10000DE0042242600AE0002282610422426057
:101D200005E0002282610422426000E000BF00BFA3
:101D3000704700000101010010B504460B488442C1
:101D400009D10121480604F063F800214FF000702A
:101D500004F05EF808E00121880604F059F800213B
:101D60004FF0806004F054F810BD000000640040A3
:101D700010B50021837A012202FA03F13D4A12686C
:101D800042F001023B4B1A603A4A1C3212688A4305
:101D9000384B1C331A60027BCAB9364A0C321268BF
:101DA0008A43344B0C331A604288C38842EA0343A7
:101DB000304A4032847A42F834300288838842EADA
:101DC00003432C4A4032847A02EBC4025360027B04
:101DD000012A19D1274A0C3212680A43254B0C33C9
:101DE0001A604288038842EA0343224A4032847AD6
:101DF00042F83430C288838842EA03431D4A4032A5
:101E0000847A02EBC4025360C27A3AB9194A121DAD
:101E100012688A43174B1B1D1A6006E0154A121DF3
:101E200012680A43134B1B1D1A60028932B9114A0A
:101E3000143212688A430F4B14331A600289012A44
:101E400006D10C4A143212680A430A4B14331A6042
:101E5000427B012A06D1074A1C3212680A43054B0D
:101E60001C331A60034A126822F00102014B1A6007
:101E700010BD00000066004070B504460D46002607
:101E800060692840002871D0B5F5807F5CD010DCF7
:101E9000082D35D006DC012D20D0022D24D0042DB4
:101EA00072D127E0102D31D0202D35D0402D6BD1AF
:101EB00038E0B5F5004F60D009DCB5F5007F49D0BA
:101EC000B5F5806F4CD0B5F5006F5DD14FE0B5F53D
:101ED000803F2DD0B5F5003F56D12FE0A0682D49A9
:101EE00000F050FD064651E0E068032100F04AFD95
:101EF00006464BE0E068082100F044FD064645E058
:101F0000E068102100F03EFD06463FE02069032115
:101F100000F038FD064639E02069082100F032FD66
:101F2000064633E02069102100F02CFD06462DE026
:101F30006068082100F026FD064627E06068102151
:101F400000F020FD064621E0A069012100F01AFD05
:101F500006461BE0A069022100F014FD064615E0CC
:101F6000A069042100F00EFD06460FE00FE0A06915
:101F7000702100F007FD064608E06068042100F0CB
:101F800001FD064602E0FFE7002600BF00E0002654
:101F9000304670BD010101001AB143690B43436132
:101FA00002E043698B434361704730B5024600202D
:101FB0000023146824F002041460146844F001043F
:101FC000146000E05B1C546804F001041CB94FF677
:101FD000FF74A342F6D1546804F001040CB9002048
:101FE0006CE08C79012C04D1146844F080041460F6
:101FF00003E0146824F080041460CC79012C04D12F
:10200000146844F04004146003E0146824F04004B1
:1020100014600C7A012C04D1146844F0200414607C
:1020200003E0146824F0200414604C7A012C04D1DD
:10203000146844F01004146003E0146824F01004E1
:1020400014608C7A012C04D1146844F008041460E4
:1020500003E0146824F008041460CC7A012C04D145
:10206000146844F00404146003E0146824F00404C9
:1020700014608C78A407CD7844EA05640D7944EAAD
:1020800005444D7944EA05540D886D1E2C43D461F6
:10209000146824F001041460002300E05B1C546801
:1020A00004F001041CB14FF6FF74A342F6D154684A
:1020B00004F001040CB1002000E0012030BD10B597
:1020C00000F5D87303EB01131B6803F004031372CC
:1020D000137A53B900F5D87303EB01131B6840F270
:1020E000FF7404EA5353136009E000F5D87303EB5F
:1020F00001131B686FF0604404EAD303536000F5DA
:10210000D87303EB01131B6803F00203537200F54D
:10211000D87303EB01135B6803F00F03937200F5B0
:10212000D87303EB01135B681B0AD37400F5D873F3
:1021300003EB01139B68D37200F5D87303EB011313
:102140009B681C0A147300F5D87303EB01139B689A
:102150001C0C547300F5D87303EB01139B681B0E22
:10216000937300F5D87303EB0113DB68D37300F5A9
:10217000D87303EB0113DB681C0A147400F5D873E1
:1021800003EB0113DB681C0C547400F5D87303EBEC
:102190000113DB681B0E937421B9C36843F020035D
:1021A000C36003E0036943F02003036110BD002115
:1021B0008171C171017241728172C1728170C1708D
:1021C000032101710221417101210180704710B585
:1021D00002460020936803F08063B3F1806F00D162
:1021E00010E0936803F00063B3F1006F01D10120A8
:1021F00008E0936803F08053B3F1805F01D10220BF
:1022000000E00420042874D002F5C07303EB00132F
:102210001B6803F0010402F5C07303EB00131C609C
:102220000B7A7BB94B7A0C8843EA445302F5C074AD
:1022300004EB00142468234302F5C07404EB00147B
:10224000236010E00B7A4C6843EAC4034C7A2343C2
:1022500002F5C07404EB00142468234302F5C07433
:1022600004EB001423608B7A03F00F038B7202F5EA
:10227000C07303EB00135B6823F00F0402F5C07317
:1022800003EB00135C6002F5C07303EB00135B68A3
:102290008C7A234302F5C07404EB001463608B7BDB
:1022A0001C064B7B44EA03440B7B44EA0323CC7AB1
:1022B000234302F5C07404EB0014A3608B7C1C065E
:1022C0004B7C44EA03440B7C44EA0323CC7B23434A
:1022D00002F5C07404EB0014E36002F5C07303EB75
:1022E00000131B6843F0010402F5C07303EB0013F5
:1022F0001C6010BD00B52DED0C8B81B001F0C4F950
:1023000018B90020BB49888016E09FEDBB0ABB4886
:1023100080ED000ABA4890ED100AB84880ED010A35
:10232000816C8847B54890ED0D0ABDEEC00A10EEED
:10233000100A00B2AF498880012002F0B1FE18B146
:102340000020AC4908804880AA49B1F90400FEF792
:10235000EFFF41EC190BA749B1F90200FEF7E8FFC6
:1023600041EC1D0B9FEDA70B53EC102BFEF7FFFE6E
:1023700041EC1B0B9F49B1F900104842FEF7D8FF12
:1023800041EC1D0B9FED9F0B53EC102BFEF7EFFE66
:1023900041EC1C0B53EC1B2BFEF742FE41EC1A0BDD
:1023A00053EC192BFEF73CFE41EC180BFFF716F827
:1023B000964908608F49B1F90400FEF7B9FF41EC76
:1023C000190B8C49B1F90200FEF7B2FF41EC1D0B6D
:1023D0009FED8C0B53EC102BFEF7C9FE41EC1B0B51
:1023E0008449B1F90000FEF7A3FF41EC1D0B9FEDFE
:1023F000850B53EC102BFEF7BAFE41EC1C0B53EC93
:102400001B2BFEF70DFE41EC1A0B53EC192BFEF7BC
:1024100007FE41EC180BFEF7E1FF7D4908607549A6
:10242000B1F90400FEF784FF41EC1B0B7149B1F9CF
:102430000200FEF77DFF41EC1D0B9FED720B53EC8C
:10244000102BFEF794FE41EC190B6A49B1F900001C
:10245000FEF76EFF41EC1D0B9FED6A0B53EC102B4A
:10246000FEF785FE41EC1A0B53EC192BFEF779FEB3
:1024700041EC180B53EC1B2BFEF7D2FD41EC1C0B6F
:10248000FEF7ACFF634908605A49B1F90400FEF752
:102490004FFF41EC1A0B5749B1F90200FEF748FF14
:1024A00041EC1D0B9FED570B53EC102BFEF75FFE1D
:1024B00041EC1C0B4F49B1F900104842FEF738FFC0
:1024C00041EC1D0B9FED4F0B53EC102BFEF74FFE15
:1024D00041EC180B53EC1C2BFEF743FE41EC1B0B9D
:1024E00053EC1A2BFEF79CFD41EC190BFEF776FF1F
:1024F000494908604948C06B00EE100AB8EEC00AAE
:10250000424880ED010A4648C06B00EE100AB8EE62
:10251000C00A3F4880ED010A4248C06B00EE100A35
:10252000B8EEC00A3B4880ED010A3F48C06B00EEA0
:10253000100AB8EEC00A084680ED010A3348816CE3
:1025400088473348816C88473248816C88473248D5
:10255000816C884701F098F8032809D002F0ABFDA0
:1025600030B901F091F8042802D001F08DF840B99B
:10257000002003460246014600902C4804F076F8FD
:1025800033E0254890ED0D0AF7EE000A20EE200A10
:10259000BDEEC00A10EE100A00B200901D4890ED8A
:1025A0000D0AF7EE000A20EE200ABDEEC00A10EE7A
:1025B000100A03B2164890ED0D0AF7EE000A20EE5D
:1025C000200ABDEEC00A10EE100A02B20F4890EDCC
:1025D0000D0AF7EE000A20EE200ABDEEC00A10EE4A
:1025E000100A01B2114804F041F801B0BDEC0C8BA7
:1025F00000BD000000050020000000007002002067
:10260000600B0020333333333333B33FC002002039
:102610001003002060030020B0030020500A0020B7
:10262000940A0020D80A00201C0B002000680040FB
:1026300010B5022002F0A2FC18B1022003F01AFE2D
:102640006AE0042002F09AFC90B101F07DF90446A2
:10265000002C61D0012C5FD0022C5DD12F4803F0FB
:10266000C3FE2F4803F030FE042003F003FE53E0C6
:10267000402002F083FC18B1402003F0FBFD4BE04A
:10268000802002F07BFC90B101F066F80446002C3B
:1026900042D0012C40D0022C3ED1224803F068FEEB
:1026A0001F4803F011FE802003F0E4FD34E0102009
:1026B00002F064FC58B103F0D1F8044664B3012C75
:1026C0002AD0022C28D1102003F0D4FD24E02020B1
:1026D00002F054FC88B103F077F80446E4B1012C11
:1026E0001AD0022C18D1104803F0A2FE0C4803F0B7
:1026F000EBFD202003F0BEFD0EE04FF4807002F0F1
:102700003DFC48B1094803F0A1FE054803F0DCFD9B
:102710004FF4807003F0AEFD10BD0000B400002047
:1027200076090020BB000020CD090020C000002059
:1027300070B52DED048B044688480068401C87491D
:1027400008602068B0F5017F4ED007DCA0F20120C0
:1027500070B1012820D0022877D131E0A0F2052005
:10276000002855D0012871D0B0F5FE7FF4D1ACE03F
:10277000032000F0A7FE0546FEF704FB774800683B
:10278000322804D82146764800F082FE03E0214634
:10279000734800F095FBB5E0042000F093FE054679
:1027A000FEF7F0FA6D480068322804D821466D48DB
:1027B00000F06EFE03E021466A4800F081FBA1E0D4
:1027C000052000F07FFE0546FEF7DCFA634800684E
:1027D000322804D82146644800F05AFE03E021461E
:1027E000614800F06DFB8DE0062000F06BFE0546B1
:1027F000FEF7C8FA59480068322804D821465B48D9
:1028000000F046FE03E02146584800F059FB79E00D
:10281000072000F057FE0546FEF7B4FA214654485B
:1028200000F04EFB00F030FF00BB5148806950497A
:102830008968401A10F57A6F09DA4E48B0F9050038
:1028400000F500504A49886110E05AE00FE048481E
:10285000806947498968401AB0F57A6F06DD4548B6
:10286000B0F90500A0F50050414988614AE0082010
:1028700000F028FE0546FEF785FA21463E4800F0A6
:102880001FFB3648006864281ED83B4880693A49D7
:102890008968401A10F57A6F07DA3648B0F90700F0
:1028A00000F50050344988610EE0334880693249B0
:1028B0008968401AB0F57A6F06DD2E48B0F9070036
:1028C000A0F500502C4988611CE0022000F0FAFDC0
:1028D0000546FEF757FAE07A0106207B41EA0041FF
:1028E000607B41EA0020A17B084300EE100AB8EEAD
:1028F000C00ADFED220A20EE200A214880ED000AFE
:1029000000E000BF00BF1A4890ED100A10EE101A48
:102910000846FEF737FD41EC190BB0EE490AF0EE20
:10292000690A05F07DFAB0EE408AF0EE608A51EC5B
:10293000180BFEF70EFD05464621FEF72CFA18B1DE
:1029400000F0A2FE032805D1092000F0BBFD0546DA
:10295000FEF718FABDEC048B70BD00008005002066
:10296000500A0020940A0020D80A00201C0B0020E6
:10297000600B002076090020A40B00200AD723BC9E
:10298000840500200246002002EA01030BB1012069
:1029900000E000207047000010B515480068401C9A
:1029A0001349086004F066FD04F0F0FD104800686B
:1029B000642801D202F060F90D480068B0F5FA6FA2
:1029C00001D100F031FD00F019FF00F0BBFB00F079
:1029D00049FC03F0DBFCFFF72BFE0548007800F014
:1029E000030018B9FFF786FC03F098FE10BD000045
:1029F000F004002010B5002041490860FEF75EFE9B
:102A0000404803F061FC002003F02AFE3E484FF4EA
:102A10007A61C26990473D484FF47A61C269904734
:102A20003948816988473948816988479FED380A64
:102A3000384880ED000A9FED360A80ED010A00203B
:102A400000F040FD0446FEF79DF9012000F03AFD3C
:102A50000446FEF797F9022000F034FD0446FEF725
:102A600091F9032000F02EFD0446FEF78BF90420B7
:102A700000F028FD0446FEF785F9052000F022FD50
:102A80000446FEF77FF9062000F01CFD0446FEF721
:102A900079F9072000F016FD0446FEF773F90820C7
:102AA00000F010FD0446FEF76DF9092000F00AFD64
:102AB0000446FEF767F90A2000F004FD0446FEF71D
:102AC00061F91548C16C88471448C16C884714489F
:102AD000C16C88471348C16C88471348C16C88474C
:102AE0001248C16C88471248C16C88471148C16CB4
:102AF00088471148C16C88471048C16C884710BD91
:102B0000F004002076090020A4040020C80400205E
:102B100000000000200A00205004002030010020A6
:102B200080010020D001002020020020700200203F
:102B3000C00200201003002060030020B00300202A
:102B400021B1026842F00102026003E0026822F053
:102B50000102026070470000016821F0010101607C
:102B60000021016041608160C160016121214161FA
:102B70004A49884204D13D21484A103A91608CE08C
:102B800046491831884205D14FF47461434A103ADE
:102B9000916082E041493031884205D14FF474118F
:102BA0003E4A103A916078E03C494831884205D16C
:102BB0004FF07461394A103A91606EE037496031E4
:102BC000884204D13649354A103AD16065E033492C
:102BD0007831884204D13349304A103AD1605CE000
:102BE0002E499031884204D12F492C4A103AD160A5
:102BF00053E02A49A831884205D14FF03D51274A78
:102C0000103AD16049E02949884204D13D21274A40
:102C1000083A116041E025491831884205D14FF446
:102C20007461224A083A116037E020493031884205
:102C300005D14FF474111D4A083A11602DE01B496B
:102C40004831884205D14FF07461184A083A116042
:102C500023E016496031884204D11149134A121FFA
:102C600011601AE011497831884204D10D490F4AA8
:102C7000121F116011E00D499031884204D10A49B8
:102C80000A4A121F116008E00849A831884204D19D
:102C90004FF03D51054A121F11607047106002400D
:102CA0003D000020400F002000003D201064024045
:102CB00021B1026842F48022026003E0026822F43B
:102CC00080220260704722B1036843F4002303604E
:102CD00003E0036823F400230360016170470146A9
:102CE000486880B27047014600200A6802F400225A
:102CF0000AB1012000E000207047000010B500225A
:102D00000268134B1A40CC680B6823434C69234379
:102D10008C692343CC6923430C6A23434C6A2343C5
:102D20008C6A23434C6B23438C6B23431A4302600E
:102D3000426922F00702D1E90B3423431A4342616E
:102D40000B6943604B6883608B68C36010BD0000F3
:102D50003F801CF00021016041608160C160016121
:102D600041618161C161016241628162C16201634D
:102D7000416381637047704710B5002107E04AF254
:102D8000104200BF131EA2F10102FBD1491C814277
:102D9000F5D310BD10B5012000F034F810B10120BA
:102DA00000F02AF810BD10B5022000F02BF810B189
:102DB000022000F021F810BD10B5102000F022F81C
:102DC00080B1102000F012F8102000F015F801205A
:102DD00000F078FB0446FDF7D5FF0120024908709A
:102DE00000F07CFB10BD0000B0000020014908602D
:102DF00070470000143C0140014908607047000022
:102E0000143C0140014600200022074B1B6803EAE6
:102E10000102054B14331B680B4013B10AB10120AA
:102E200000E0002070470000003C014000212349E1
:102E30008279002A3AD00A46126803689A430B4600
:102E40001A600A1D126803689A430B1D1A60027902
:102E500011440A6803681A430A60184A0832126863
:102E600003689A43154B08331A601A1D12680368E9
:102E70009A43124B0C331A604279102A0ED11A1F52
:102E8000126803681A430D4B08331A601A1D126842
:102E900003681A43094B0C331A600DE00749427965
:102EA00011440A6803681A430A6005E00279114474
:102EB0000A6803689A430A6070470000003C0140BA
:102EC00070B500220023046844600C7BCD7A44EA8C
:102ED0000524046004684568641BC460C4682B4D05
:102EE000AC4207DA846B641C8463C46804F5005444
:102EF000C4610EE0C46841F64C55AC4207DD846BFA
:102F0000641E8463C468A4F50054C46101E0C4680D
:102F1000C4610568846B05EB44348460046885698A
:102F2000641B00EE104AB8EEC00ADFED190A20EE6D
:102F3000200A9FED181AC0EE010A846B4FF4B47595
:102F40006C4300EE104AB8EEC00A30EE800A80ED05
:102F5000100AC669047D651C057500F1200545F859
:102F60002460047D062C01D100240475002205E0B4
:102F700000F1200454F822402344521C062AF7DBB7
:102F8000062493FBF4F4C46370BD0000B4E2FFFFB9
:102F90000000B4430000004647F6FF700149086096
:102FA000704700002404004030B10749096841F42B
:102FB0008061054A116005E00349096821F48061D8
:102FC000014A116070470000003C024070B50446A1
:102FD0000A460026082502B909E0012A01D1160295
:102FE00005E0022A01D1160201E04FF4407600F01C
:102FF00097F80546082D28D11548006820F4407040
:1030000013490860084600683043086008460068B5
:1030100020F0F80008600846006844F00201084308
:103020000B4908600846006840F48030086000F0F2
:1030300077F805460648006820F002000449086059
:103040000846006820F0F8000860284670BD0000BF
:10305000103C024008201049096801F48031B1F5A4
:10306000803F01D1012015E00B49096801F01001F2
:1030700009B105200EE00849096801F0EF0109B126
:10308000062007E00449096801F0020109B10720A0
:1030900000E00820704700000C3C02400348006834
:1030A00040F000400149086070470000103C0240B9
:1030B00030B502460C46082500F032F80546082DCA
:1030C00017D10D48006820F440700B49086008468D
:1030D000006808600846006840F00100086014704D
:1030E00000F01EF805460448006820F0010002497F
:1030F0000860284630BD0000103C024005480068CA
:1031000000F0004028B1044802490C390860034827
:1031100008607047103C024023016745AB89EFCD42
:1031200008B508200090FFF795FF009002E0FFF738
:1031300091FF00909DF800000128F8D09DF8000054
:1031400008BD000010B52DED048B3A49B1F902001D
:10315000FEF7EEF841EC190B9FED370B53EC102BFB
:10316000FDF75EFF41EC180BFEF738F934490861B2
:103170003048B0F9040000EE100AB8EEC00A084664
:1031800080ED050A2B48B0F9060000EE100AB8EEF3
:10319000C00A084680ED060A2A49B1F90200FEF786
:1031A000C7F841EC190B9FED280B53EC102BFDF7E2
:1031B00037FF41EC180BFEF711F92549086121484A
:1031C000B0F9040000EE100AB8EEC00A084680ED1F
:1031D000050A1C48B0F9060000EE100AB8EEC00A55
:1031E000084680ED060A1B4890ED000A144880ED61
:1031F000000A1948016988471848D0ED100AF1EE15
:10320000600A20EE200A0E4880ED010A816C884792
:103210000B4890ED0D0A0E4880ED000A104890ED25
:10322000050A0B4880ED010A816C8847BDEC048BD0
:1032300010BD0000D4000020000000000000344059
:1032400030010020DC0000200000000000003340BE
:1032500080010020200A0020A4040020A40B0020EC
:103260005C08002010B52848B0F90200193000EEC3
:10327000100AB8EEC00A254880ED040A2248B0F9C9
:10328000040000EE100AB8EEC00A204880ED050ADE
:103290001D48B0F9060000EE100AB8EEC00A1B483F
:1032A00080ED060A1A48B0F90200233000EE100A39
:1032B000B8EEC00A174880ED040A1548B0F90400BA
:1032C00000EE100AB8EEC00A124880ED050A104858
:1032D000B0F9060000EE100AB8EEC00A0D4880ED05
:1032E000060A0A48816C8847084890ED0D0A09488B
:1032F00080ED000A084890ED060A064880ED010AB4
:10330000816C884710BD0000E4000020D00100203F
:10331000EC000020200200205C080020F0B50A46E6
:1033200000210023002400BF3DE0012505FA01F340
:10333000156805EA03049C4234D105684F00032652
:10334000BE40B543056015794E00B540066835436B
:1033500005601579012D02D01579022D16D18568E9
:103360004F000326BE40B543856055794E00B540F9
:10337000866835438560456801268E40B5434560C3
:10338000456896798E40B6B235434560C5684F00B2
:103390000326BE40B543C560D5794E00B540C6682A
:1033A0003543C560491C1029BFD3F0BDF0B50023DB
:1033B00000244D07ED0E02FA05F3CE1000F12005B2
:1033C00055F826504E07F70E0F26BE40B543CF10D6
:1033D00000F1200646F82750CE1000F1200555F8E0
:1033E000265045EA0304CE1000F1200545F826409A
:1033F000F0BD0246002013690B400BB1012000E034
:103400000020704741837047018370474FF6FF717A
:1034100001600021017141718171C1717047426980
:103420004A4042617047000000B585B040F2044058
:10343000009000208DF808008DF8090008208DF814
:103440000A0000208DF80B0001218DF80C100221DC
:103450008DF80D1003218DF80E1004218DF80F103A
:1034600005218DF8101006218DF8111007218DF817
:10347000121069460248FEF7AAFE05B000BD000022
:10348000006400400148006870470000F800002018
:103490000A7BCB7A42EA0322826182698260826976
:1034A00042600269521C02617047000001480078C6
:1034B00070470000060500200148007870470000B2
:1034C0000805002001460B2903D2034800EB8100C8
:1034D00070470020FCE7000088050020324890ED8E
:1034E000030A324880ED040A2F4890ED040AB1EE39
:1034F000400A2E4880ED050A2B4890ED050A2B481E
:1035000080ED060A2A4890ED000A2A4880ED000A5C
:10351000294890ED000A264880ED000A90ED000A47
:103520002448D0ED000A30EE600ADFED240AB4EE44
:10353000E00AF1EE10FA05DB21480068401E204940
:10354000086013E01A4890ED000A1A48D0ED000A0E
:1035500030EE600ADFED1B0AB4EEE00AF1EE10FA7D
:1035600004D817480068401C1549086014480068D2
:103570004FF4B471484300EE100AB8EEC00A0C488C
:10358000D0ED000A30EE200A0F4880ED000A0A480C
:1035900090ED010A0D4880ED000A074890ED020AFF
:1035A0000B4880ED000A7047080800205C080020E6
:1035B000700000207C0000203C0800200000A54393
:1035C000940000200000A5C3880000208C0000208B
:1035D00090000020002108480068A0F5FE41FF3956
:1035E00047F6FF70044A106004480078012801D1B2
:1035F000084670474842FCE72404004014000020BD
:1036000010B501700378047D021D1355037DD35C52
:10361000447D125D43EA82024270027D521C02F038
:103620000F0282754378847D021D125D43EA021207
:103630008270037D021DD35C447D125D934205D1EF
:103640000D4A1268521C0C4B1A6002E000220A4B11
:103650001A60094A1268282A03D3037D021DD25C2E
:10366000C270027D4275027D521C0275027D102AD5
:1036700001D10022027510BD7805002001480078B4
:1036800070470000070500200148007870470000DF
:10369000A10400200146024800680840704700006D
:1036A000B40500204FF08040406A7047274890EDF5
:1036B000000AFAEE080AB4EEE00AF1EE10FA04D8B5
:1036C000BAEE080A80ED000A0DE0204890ED000AED
:1036D000F3EE030AB4EEE00AF1EE10FA03DBB3EE08
:1036E000030A80ED000A194890ED010A1848D0ED50
:1036F000010A9FED181A70EEC10AB4EEE00AF1EE6D
:1037000010FA09D890ED010ADFED120A30EE600AD6
:103710000E4880ED010A17E00C4890ED010A0C48B4
:10372000D0ED010A9FED0B1A70EE810AB4EEE00AAB
:10373000F1EE10FA08DB90ED010ADFED060A30EE3B
:10374000200A024880ED010A70470000200A00208C
:10375000D00100200000704210B5802001F0A0FCD4
:1037600020B94FF4807001F09BFC08B1002010BD1F
:103770001B4801680068401C194A1060194800681D
:1037800081420FD21848006818490968084417494F
:103790000860174800681749096808441549086017
:1037A0000120E4E7114800680E490968B0FBF1F018
:1037B00000B2114948800F4800680A490968B0FB07
:1037C000F1F000B20C4908805A2008710020074926
:1037D000086008490860024908600220C7E7000045
:1037E000FC00002000010020A40B002004010020A8
:1037F000600B002008010020BB00002010B5FFF77F
:1038000043FF05281CD2DFE800F003421C8283003E
:103810009FED410A414880ED000A4148016988470F
:103820004048D0ED100AF1EE600A20EE200A3B4835
:1038300080ED010A3C4890ED000A3C4880ED000A0A
:1038400067E03B48007801280ED100203849087015
:10385000012038490870354890ED000A364880ED5F
:10386000010A002035490860334890ED010A2B48D1
:1038700080ED000A2C4890ED000A284880ED010AEE
:103880002F4890ED000A294880ED000A41E02B48BE
:103890000068401C29490860084600682949884298
:1038A00012D2254890ED010A1C4880ED000A1E48FE
:1038B00090ED000A194880ED010A214890ED000AB8
:1038C0001A4880ED000A21E01A48007801280BD13F
:1038D000002018490870012015490870134890ED20
:1038E000000A154880ED010A134890ED010A0B48C3
:1038F00080ED000A124890ED000A084880ED010AA8
:10390000094890ED000A094880ED000A01E000E056
:1039100000BF00BF10BD000000000000D00100206B
:10392000C8040020600B002084050020FC04002057
:10393000F5040020F4040020200A0020F8040020F0
:1039400088000020A086010000B585B0002002900C
:10395000039004902F49088048808880022001F05D
:103960009FFB10B1002005B000BD2B4801880088E6
:10397000401C294A108029480088814221DA0DF133
:10398000120004A9031F03AACDE90010891F02A891
:1039900001F02AFEBDF90E002149096808442049BA
:1039A0000860BDF910001F49096808441D490860F6
:1039B000BDF912001C49096808441B490860012030
:1039C000D1E7174800681549098890FBF1F000B26B
:1039D00016490880134800681049098890FBF1F0E7
:1039E00000B212494880104800680C49098890FBD1
:1039F000F1F000B20D4988805A20887100200849F2
:103A000008600849086008490860034908800220E6
:103A1000A9E70000CD0000200C0100200E010020CD
:103A2000100100201401002018010020B400002023
:103A30001CB50121022002F0CBF9102000900120DA
:103A40008DF8040000208DF8060003208DF8050095
:103A500069460448FFF762FC10210248FFF7D2FCD8
:103A60001CBD00000004024008B5002000900123A6
:103A70006A460A213C2001F09BFD40B99DF80000F8
:103A8000482809D015A003F095FDFF2008BD16A019
:103A900003F090FDFF20F9E7702200213C2000F0A8
:103AA0001FFB0520FFF768F9A02201213C2000F050
:103AB00017FB0520FFF760F9002202213C2000F0EF
:103AC0000FFB0620FFF758F9182200213C2000F0D8
:103AD00007FB0620FFF750F90020D7E76572726FE9
:103AE000722032410D0A00006572726F72203242FC
:103AF0000D0A000010B504460623224603213C208F
:103B000001F056FD10BD00002DE9F04104460D46C0
:103B100016461648FFF7EEFF144B0E3B5B7C134F27
:103B20000E3F3F7C43EA07231AB2104B0E3BDB7B70
:103B30000E4F0E3FBF7B43EA07235B4219B20B4B8C
:103B40000E3BDB7C094F0E3FBF7C43EA072318B2D4
:103B500000F070F80648808A20800548408D288053
:103B60000348B0F840003080BDE8F0819E08002096
:103B700028090020054B9B8A0380044B5B8D0B803A
:103B8000024BB3F840301380704700002809002032
:103B90003EB504466A4601A902A8FFF7B5FF2148D1
:103BA000B0F90000BDF90810081A00EE100AF8EE8E
:103BB000C00A1C48D0F8060000EE100A20EE800A69
:103BC000194880ED000A84ED000A1648B0F9020099
:103BD000BDF90410081A00EE100AF8EEC00A1148E8
:103BE000D0F80A0000EE100A20EE800A0F4880ED9F
:103BF000000A84ED010A0B48B0F90400BDF9001079
:103C0000081A00EE100AF8EEC00A0648D0F80E00B6
:103C100000EE100A20EE800A054880ED000A84EDCF
:103C2000020A3EBDF3090020980000209C000020FD
:103C3000A0000020F0B503460C4600200021012022
:103C400019E0504D35F81060451E4E4F27F81560AD
:103C500007F1160535F81070451E4A4E163626F83F
:103C6000157006F1160535F81070451E163626F843
:103C70001570451CE8B20A28E3DB424D6B822C85A7
:103C8000EA87002005E03F4D35F910502944451CD6
:103C9000E8B20A28F7DB0A2591FBF5F52DB2394E7B
:103CA000B5820021002006E0364D163535F910505A
:103CB0002944451CE8B20A28F6DB0A2591FBF5F5F4
:103CC0002EB2304D6E850021002006E02D4D2C35A2
:103CD00035F910502944451CE8B20A28F6DB0A25BC
:103CE00091FBF5F52EB2274DA5F84060264DB5F9AC
:103CF0000650244EB6F91460B54203DD214DAD8A5D
:103D0000214EF580204DB5F908601E4DB5F92A50B9
:103D1000AE4203DD1B4D6D8D1B4E35811A4DB5F93D
:103D20000A60184DB5F94050AE4204DD154DB5F8A6
:103D30004050154E7581144DB5F90050114EB6F92D
:103D40001460B54203DA0F4DAD8A0F4E35800E4D2B
:103D5000B5F902600B4DB5F92A50AE4203DA094DB0
:103D60006D8D094E7580084DB5F90460054DB5F9A6
:103D70004050AE4204DA034DB5F84050024EB580D3
:103D8000F0BD0000280900206A09002000BFFEE7FE
:103D900010B5044600F0E6F82CB14FF400710D4860
:103DA000FFF732FB04E04FF400710A48FFF72AFBEB
:103DB0004FF480710748FFF727FB012000F00CF853
:103DC0004FF480710348FFF71DFB012000F004F859
:103DD00010BD00000004024010B5002106E00622DC
:103DE00000BF131EA2F10102FBD1491C8142F6D390
:103DF00010BD00001CB50121022001F0E9FF4FF4C5
:103E00004070009001208DF804008DF8060003201A
:103E10008DF8050069460248FFF780FA1CBD0000D6
:103E20000004024070B5002400F086F800251BE075
:103E30004FF480711148FFF7E5FA0120FFF7CCFF3E
:103E40004FF480710D48FFF7DFFA6006040E4FF45F
:103E500000710A48FFF7CDFA08B1601CC4B2012016
:103E6000FFF7BAFF681CC5B2082DE1DB4FF4807183
:103E70000248FFF7C7FA204670BD00000004024068
:103E80002DE9F04106460F461446984600F07EF8AC
:103E9000304600F0F3F800F0B9F8FF2805D11DA076
:103EA00003F088FBFF20BDE8F081384600F0E6F81B
:103EB00000F0ACF8FF2804D119A003F07BFBFF2031
:103EC000F1E700F063F8711CC8B200F0D7F800F019
:103ED0009DF8FF2804D115A003F06CFBFF20E2E75A
:103EE000002508E0FFF79EFF20700020FFF750FF3D
:103EF000641C681CC5B2A8F10100A842F2DCFFF7FF
:103F000091FF20700120FFF743FF00F05FF80020D1
:103F1000C9E700006572726F722032460D0A000018
:103F20006572726F722032470D0A00006572726FFF
:103F3000722032480D0A00001CB54FF4007000904A
:103F400000208DF804008DF806008DF8070002208F
:103F50008DF8050069460248FFF7E0F91CBD000036
:103F6000000402401CB54FF40070009001208DF851
:103F700004008DF8060003208DF80500694602480C
:103F8000FFF7CCF91CBD00000004024010B5FFF79C
:103F9000E9FF4FF400710C48FFF736FA4FF48071D7
:103FA0000948FFF731FA0120FFF716FF4FF40071BF
:103FB0000548FFF727FA0120FFF70EFF4FF4807145
:103FC0000148FFF71FFA10BD0004024010B5FFF7CB
:103FD000C9FF4FF480710C48FFF714FA4FF40071D9
:103FE0000948FFF70FFA0120FFF7F6FE4FF4807142
:103FF0000548FFF709FA4FF400710348FFF704FA88
:104000000120FFF7E9FE10BD0004024010B54FF497
:104010007A744FF400711548FFF7F6F9FFF78CFF3B
:104020000120FFF7D9FE4FF480711048FFF7ECF93B
:104030000120FFF7D1FE0AE0601E80B2041E06D008
:10404000FFF7C4FF0AA003F0B5FAFF2010BD4FF43C
:1040500000710648FFF7CDF90028EDD14FF48071CB
:104060000248FFF7CFF90020F0E70000000402400B
:104070006572726F722032410D0A000070B50446FD
:10408000FFF770FF4FF480711448FFF7BBF900256C
:1040900021E004F0800028B14FF400710F48FFF7D1
:1040A000B3F904E04FF400710C48FFF7ABF9600678
:1040B000040E0120FFF790FE4FF480710748FFF7D0
:1040C000A3F90120FFF788FE4FF480710348FFF742
:1040D00099F9681CC5B2082DDBDB70BD00040240F5
:1040E00070B506460C461546FFF750FF3046FFF701
:1040F000C5FFFFF78BFFFF2804D110A003F05AFA89
:10410000FF2070BD2046FFF7B9FFFFF77FFFFF28B4
:1041100004D10DA003F04EFAFF20F2E72846FFF786
:10412000ADFFFFF773FFFF2804D10AA003F042FAA6
:10413000FF20E6E7FFF74AFF0020E2E76572726FB3
:10414000722032420D0A00006572726F7220324393
:104150000D0A00006572726F722032440D0A000071
:1041600000B52DED108B93B0FE4890ED000AD0ED18
:10417000000A20EE200A8DED080A90ED000AFA48A8
:10418000D0ED000A20EE200AB0EE40FAF54890ED9E
:10419000000AF648D0ED000A20EE200AF0EE40AA10
:1041A000F04890ED000AF248D0ED000A20EE200A17
:1041B0008DED070AEC4890ED000AD0ED000A20EEE4
:1041C000200AF0EE40FA90ED000AE848D0ED000A2F
:1041D00020EE200A8DED060AE34890ED000AE4483F
:1041E000D0ED000A20EE200AB0EE40BADF4890ED94
:1041F000000AD0ED000A20EE200AF0EE40BA90ED61
:10420000000ADB48D0ED000A20EE200A8DED050AF9
:1042100090ED000AD0ED000A20EE200A8DED040A90
:10422000D44890ED030ADFEDD40A20EE200ADFED3A
:10423000D30A80EE201AD24880ED001ACD4890EDC6
:10424000040ADFEDCD0A20EE200ADFEDCC0A80EE75
:10425000201ACC4880ED001AC64890ED050ADFED23
:10426000C60A20EE200ADFEDC50A80EE201AC648F5
:1042700080ED001ABF4890ED000AC44880ED000AA6
:10428000BC4890ED010AC24880ED000AB94890EDA3
:10429000020AC04880ED000AB64890ED060ABE4802
:1042A00080ED000AB34890ED070ABC4880ED000A93
:1042B000B04890ED080ABA4880ED000AFFF7F2F91D
:1042C000B849086008460068B749096888420CD3B5
:1042D000B4480068B4490968401A00EE100AB8EE04
:1042E000400ADFEDB20AC0EE208AAE480068AE494F
:1042F0000860A648D0ED000A90ED001A60EE810A31
:10430000A34890ED001AD0ED001A41EE210AA14811
:1043100090ED001AD0ED001A41EE210AB0EE600ACD
:1043200003F0FAFEB0EE408A984890ED000A20EEC5
:10433000080A80ED000A964890ED000A20EE080A6F
:1043400080ED000A934890ED000A20EE080A80ED07
:10435000000A9148D0ED000A90ED001A60EE810A43
:104360008E4890ED001AD0ED001A41EE210A8C48DB
:1043700090ED001AD0ED001A41EE210AB0EE600A6D
:1043800003F0CAFEB0EE408A834890ED000A20EEAA
:10439000080A80ED000A814890ED000A20EE080A24
:1043A00080ED000A7E4890ED000A20EE080A80EDBC
:1043B000000A794890ED000AF0EE000A60EE200A4B
:1043C000B6EE000A30EE6B1A9DED040A31EE400A9B
:1043D00020EE800A7148D0ED000AB0EE001A60EEBF
:1043E000811ADDED060A9DED071A70EEC10A01EE95
:1043F000A00A6B48D0ED000AB0EE001A60EE810A08
:104400003BEE2A1A00EE810A8DED110A624890ED0A
:10441000000AF0EE000A20EE201A9DED060ADDEDFE
:10442000070A30EE200A21EE000A5C48D0ED000AAF
:10443000B0EE001A20EE811AF6EE000A70EEEF1AC6
:10444000DDED040A71EEE00A01EE200A5448D0EDD9
:10445000000AB0EE001A20EE811ADDED050A70EEBA
:10446000CF0A01EE200A8DED100A4B4890ED000AAC
:10447000F0EE000A20EE200A7BEE6A0A60EE200AC7
:10448000464890ED000AB0EE001A20EE011A9DEDAC
:10449000050A70EE0F1AB0EE600A01EE210A4048DC
:1044A000D0ED000AB0EE001A60EE810AB6EE001AF6
:1044B00031EE6F1A31EE6B1AB0EE409A00EE819A2F
:1044C0009DED110A60EE000A9DED100A40EE000A13
:1044D00010EE901A0846FCF755FFCDE900019DED5E
:1044E000000B03F0A7FC8DED020B9DED020B51ECD0
:1044F000100BFCF773FF09EE900AB0EE49AA3BEEF1
:104500006A0AF0EE000A20EE200A8DED0F0A9DEDFA
:10451000050A3FEE000AF0EE000A20EE200A8DEDBB
:104520000E0A9DED080A30EE6F0A70EE6B0A9DEDE3
:10453000040A30EE800A8DED0D0AB0EE000A69EE35
:10454000800AB6EE000A30EE6B1A9DED040A31EED9
:10455000400A20EE800AB0EE4A9AF0EE000A69EEB8
:10456000200A25E034000020380000203C00002014
:104570004000002008080020DB0F494000003443C1
:1045800044000020480000204C0000205000002083
:1045900054000020580000205C0000206000002033
:1045A000640000206C000020680000200024F44912
:1045B0003BEE6A1A00EE810A8DED0C0AB0EE000A9D
:1045C00029EE801A9DED060ADDED070A30EE600A3D
:1045D00021EE000AB0EE4A9AF0EE000A29EE201A07
:1045E000DDED050A7FEE200A01EE200A8DED0B0AB3
:1045F000B0EE000A29EE800A7AEE8B0A20EE200A3D
:10460000B0EE4A9AF0EE000A69EE200AB6EE001A01
:1046100031EE6F1A31EE6B1A00EE810A8DED0A0A47
:10462000AF48D0ED000A9DED0D0A60EE800AAD485E
:1046300090ED001A9DED0E0A41EE400AAA4890ED59
:10464000001A9DED0A0A21EE001AA848D0ED001AC2
:104650009DED0B0A01EEC01A30EE81CAA148D0EDE3
:10466000000A9DED0F0A60EE800AA14890ED001A45
:104670009DED0D0A41EE400A9C4890ED001A9DED1B
:104680000C0A21EE001A9B48D0ED001A9DED0A0A93
:1046900001EEC01A70EE81CA9548D0ED000A9DED7A
:1046A0000E0A60EE800A8E4890ED001A9DED0F0A0A
:1046B00041EE400A8F4890ED001A9DED0B0A21EE65
:1046C000001A8948D0ED001A9DED0C0A01EEC01ABF
:1046D00030EE81DAB5EEC0CAF1EE10FA57D0F5EE41
:1046E000C0CAF1EE10FA52D0B5EEC0DAF1EE10FA0F
:1046F0004DD09FED810A6CEE000A804890ED000AD3
:1047000000EEA80A80ED000A9FED7B0A6CEE800A9D
:104710007B4890ED000A00EEA80A80ED000A9FEDAC
:10472000760A6DEE000A774890ED000A00EEA80ABE
:1047300080ED000A744890ED000AF0EE000A00EEE9
:104740008C0A6E48D0ED000A30EE200A6E4880EDEB
:10475000000A6E4890ED000AF0EE000A00EEAC0A86
:104760006748D0ED000A30EE200A684880ED000A64
:10477000674890ED000AF0EE000A00EE8D0A6148ED
:10478000D0ED000A30EE200A614880ED000A614851
:1047900090ED000AB1EE400A5B48D0ED000A20EE31
:1047A000200A5D48D0ED000A584890ED001A00EE4E
:1047B000C10A5A4890ED001A5548D0ED001AF0EEA3
:1047C000400A41EE610A564890ED000A00EEA80A40
:1047D0008DED090A90ED000A4B48D0ED000A20EE5D
:1047E000200A4D48D0ED000A494890ED001A00EE2D
:1047F000810A4A48D0ED000A444890ED001A00EEC4
:10480000C10A4448D0ED000AF0EE60DA40EE28DA42
:10481000434890ED000A3D48D0ED000A20EE200A02
:104820003C48D0ED000A3A4890ED001A00EEC10A6B
:104830003A48D0ED000A344890ED001A00EE810AA3
:104840003548D0ED000AB0EE60EA00EE28EA3448C0
:1048500090ED000A2E48D0ED000A20EE200A2D48E7
:10486000D0ED000A294890ED001A00EE810A2A488E
:10487000D0ED000A244890ED001A00EEC10A274846
:10488000D0ED000AF0EE60EA40EE28EADDED090A1C
:1048900060EEA00A4DEEAD0A4EEE0E0A4EEEAE0AE6
:1048A000B0EE600A03F038FCB0EE408A9DED090AD4
:1048B00020EE080A1A4880ED000A2DEE880A1548F5
:1048C00080ED000A2EEE080A134880ED000A2EEE55
:1048D000880A124880ED000A13B0BDEC108B00BDB1
:1048E00054000020580000206000002064000020D8
:1048F000500000205C0000200AD7233C2800002044
:104900002C0000203000002044000020480000203F
:104910004C000020380000203C0000204000002017
:104920003400002010B504460C4800F021F8FFF7D1
:1049300017FC0B4890ED000A84ED000A094890ED41
:10494000000A84ED010A084890ED000A84ED020A8D
:10495000064890ED000A84ED030A10BD0808002007
:1049600034000020380000203C00002040000020DF
:1049700030B585B004460DF1120004A9031F03AA47
:10498000CDE90010891F02A800F02EFEBDF8080036
:1049900028490880BDF80A004880BDF80C008880CE
:1049A000BDF80E000881BDF810004881BDF8120066
:1049B000888100251DE0032D0BDA02A830F91500CF
:1049C00000EE100AB8EEC00A04EB850080ED000A84
:1049D0000EE002A830F9150000EE100AB8EEC00A89
:1049E000DFED150A80EE201A04EB850080ED001A39
:1049F0006D1C062DDFDB04F11800FFF7C9F894EDFC
:104A0000060ABDEEC00A10EE100A00B20949C881BC
:104A100094ED070ABDEEC00A10EE100A00B208823B
:104A200094ED080ABDEEC00A10EE100A00B24882EA
:104A300005B030BD480800203333034210B52DEDDA
:104A40000C8B04468748FFF76DFF864890ED020AFD
:104A5000F8EE000A20EE200AD0ED020A20EE200A2D
:104A6000D0ED030AB0EE001A60EE810A90ED031A51
:104A700000EEC10AF7EE000A30EE200A10EE101A1E
:104A80000846FCF77FFC41EC1C0B764890ED010AD0
:104A9000F0EE000A20EE200AD0ED020A20EE200AF5
:104AA000D0ED000AB0EE001A60EE810A90ED031A14
:104AB00000EE810A10EE101A0846FCF763FC41EC88
:104AC0001D0BB0EE4C1AF0EE6C1AB0EE4D0AF0EE83
:104AD0006D0A03F0ADF8B0EE40BAF0EE60BA51ECFA
:104AE0001B0B81F0004141EC1A0B9FED5F0B53EC67
:104AF000102BFCF73CFB41EC190B9FED5D0B53ECCD
:104B0000102BFCF7A6FB41EC180BFCF767FC00EE42
:104B1000100A84ED000A534890ED010AF8EE000AED
:104B200020EE200AD0ED030A20EE200AD0ED000A84
:104B3000B0EE001A60EE810A90ED021A00EE810AD2
:104B400010EE101A0846FCF71DFC41EC1C0BB0EEF1
:104B50004C0AF0EE6C0A02F04FFDB0EE40BAF0EEF7
:104B600060BA51EC1B0B81F0004141EC1A0B9FED38
:104B70003E0B53EC102BFCF7FAFA41EC190B9FEDAE
:104B80003C0B53EC102BFCF764FB41EC180BFCF7CF
:104B900025FC00EE100A84ED010A324890ED010A6E
:104BA000F8EE000A20EE200AD0ED010A20EE200ADD
:104BB000D0ED020AB0EE001A60EE810A90ED021A02
:104BC00000EEC10AF7EE000A30EE200A10EE101ACD
:104BD0000846FCF7D7FB41EC1B0B224890ED020A7C
:104BE000F0EE000A20EE200AD0ED030A20EE200AA3
:104BF000D0ED000AB0EE001A60EE810A90ED011AC5
:104C000000EE810A10EE101A0846FCF7BBFB41ECDF
:104C10001C0BB0EE4B1AF0EE6B1AB0EE4C0AF0EE35
:104C20006C0A03F005F8B0EE40AAF0EE60AA9FED22
:104C30000E0B53EC102B51EC1A0BFCF798FA41ECCD
:104C4000190B9FED0B0B53EC102BFCF702FB41EC07
:104C5000180BFCF7C3FB00EE100A84ED020ABDEC52
:104C60000C8B10BD2C080020000000000080664066
:104C700000000060FB21094010B52DED048B84B0CD
:104C800001AA02A903A8FEF775FFBDF90C000028D0
:104C90004BDABDF90800002847DABDF90C00BDF970
:104CA000081090FBF1F42046FCF742FB41EC190B95
:104CB000B0EE490AF0EE690A03F0B2F8B0EE408AAD
:104CC000F0EE608A9FED920B53EC102B51EC180B19
:104CD000FCF76CFB14D89FED900A904880ED000A19
:104CE0009FED8F0A8F4880ED000A9FED8F0A8F4855
:104CF00080ED000A9FED8E0A8E4880ED000A03E1E8
:104D00009FED8D0A854880ED000A9FED8C0A85484D
:104D100080ED000A9FED8A0A844880ED000A9FED2D
:104D2000890A844880ED000AEEE0BDF90C000028F5
:104D30004BDABDF90800002847DDBDF90C00BDF9CC
:104D4000081090FBF1F42046FCF7F2FA41EC190B45
:104D5000B0EE490AF0EE690A03F062F8B0EE408A5C
:104D6000F0EE608A9FED6A0B53EC102B51EC180BA0
:104D7000FCF71CFB14D89FED740A684880ED000A0C
:104D80009FED670A674880ED000A9FED700A67484B
:104D900080ED000A9FED6E0A664880ED000AB3E0E0
:104DA0009FED690A5D4880ED000A9FED6A0A5D4843
:104DB00080ED000A9FED680A5C4880ED000A9FEDD7
:104DC000670A5C4880ED000A9EE0BDF90C000028EF
:104DD0004BDDBDF90800002847DDBDF90C00BDF929
:104DE000081090FBF1F42046FCF7A2FA41EC190BF5
:104DF000B0EE490AF0EE690A03F012F8B0EE408A0C
:104E0000F0EE608A9FED420B53EC102B51EC180B27
:104E1000FCF7CCFA14D89FED520A404880ED000A06
:104E20009FED4A0A3F4880ED000A9FED3D0A3F484A
:104E300080ED000A9FED380A3E4880ED000A63E0ED
:104E40009FED480A354880ED000A9FED430A35483A
:104E500080ED000A9FED3F0A344880ED000A9FED87
:104E6000410A344880ED000A4EE0BDF90C000028EC
:104E70004ADDBDF90800002846DABDF90C00BDF98D
:104E8000081090FBF1F42046FCF752FA41EC190BA4
:104E9000B0EE490AF0EE690A02F0C2FFB0EE408AB5
:104EA000F0EE608A9FED1A0B53EC102B51EC180BAF
:104EB000FCF77CFA14D89FED2C0A184880ED000A04
:104EC0009FED2A0A174880ED000A9FED150A174842
:104ED00080ED000A9FED260A164880ED000A13E0D7
:104EE0009FED210A0D4880ED000A9FED150A0D483F
:104EF00080ED000A9FED1F0A0C4880ED000A9FED2F
:104F00001E0A0C4880ED000A04B0BDEC048B10BDF5
:104F1000000000000000F03F0AD7A3BB34000020CF
:104F2000A8C64BBE38000020BE9F7A3F3C00002040
:104F30004ED111BC400000206F1203BC7B140EBF89
:104F4000E17A543F6F1203BB0AD7A33B355E7ABFA9
:104F5000A69B443C68910DBFE17A54BF99BB16BB38
:104F600052499D3A99BB163B0AD7233B355E7A3F9F
:104F70006F12033C295C0FBFBC74933B014604488D
:104F80000068084008B1012070470020FCE70000DD
:104F9000F800002010B52DED048B3A49B1F900005E
:104FA000FCF7C6F941EC190BB0EE490AF0EE690ABC
:104FB00002F036FFB0EE408AF0EE608A9FED320BD1
:104FC00053EC102B51EC180BFCF7F0F953D92D4989
:104FD000B1F90200FCF7ACF941EC190BB0EE490A4B
:104FE000F0EE690A02F01CFFB0EE408AF0EE608A33
:104FF0009FED250B53EC102B51EC180BFCF7D6F959
:1050000039D9234890ED050A10EE101A0846FCF72E
:10501000B9F941EC190BB0EE490AF0EE690A02F059
:10502000FFFEB0EE408AF0EE608A9FED170B53EC66
:10503000102B51EC180BFCF7B9F91CD9144890ED62
:10504000040A10EE101A0846FCF79CF941EC190B03
:10505000B0EE490AF0EE690A02F0E2FEB0EE408AD4
:10506000F0EE608A9FED080B53EC102B51EC180BFF
:10507000FCF79CF903D80120BDEC048B10BD002087
:10508000FAE70000000500200000000000002440B6
:10509000200A00200148007870470000F40000203A
:1050A00000B502461046FEF7F5FA904201D1012004
:1050B00000BD0020FCE700B50220FFF7F1FF68B952
:1050C0004FF40070FFF7ECFF40B90420FFF7E8FF52
:1050D00020B94FF48060FFF7E3FF08B1012000BD65
:1050E0000020FCE71CB50121042000F071FE062021
:1050F000009001208DF8040000208DF806000320A8
:105100008DF8050069460648FEF708F902210448B3
:10511000FEF77AF904210248FEF776F91CBD00007B
:10512000000802402DE9F04304460D46DDE907671B
:1051300000200021012041E0DFF8D8C13CF81080B8
:10514000A0F1010CDFF8CC9129F81C8009F1160CB4
:105150003CF81090A0F1010CDFF8B88108F11608B6
:1051600028F81C9008F1160C3CF81090A0F1010CE6
:1051700008F1160828F81C9008F1160C3CF810905D
:10518000A0F1010C08F1160828F81C9008F1160C83
:105190003CF81090A0F1010C08F1160828F81C90BA
:1051A00008F1160C3CF81090A0F1010C08F116085B
:1051B00028F81C9000F1010C0CF0FF000A28BBDB62
:1051C000DFF850C1ACF81240ACF82850ACF83E20E3
:1051D000ACF85430ACF86A60ACF88070002008E09D
:1051E000DFF830C13CF910C0614400F1010C0CF053
:1051F000FF000A28F4DB4FF00A0C91FBFCFC0FFACD
:105200008CFCDFF81081A8F814C0002100200AE00F
:10521000DFF800C10CF1160C3CF910C0614400F13C
:10522000010C0CF0FF000A28F2DB4FF00A0C91FB96
:10523000FCFC0FFA8CF8DFF8DCC0ACF82A80002107
:1052400000200AE0DFF8CCC00CF12C0C3CF910C0B7
:10525000614400F1010C0CF0FF000A28F2DB4FF072
:105260000A0C91FBFCFC0FFA8CF8DFF8A8C0ACF834
:105270004080002100200AE0DFF898C00CF1420CC9
:105280003CF910C0614400F1010C0CF0FF000A2849
:10529000F2DB4FF00A0C91FBFCFC0FFA8CF8DFF804
:1052A00074C0ACF85680002100200AE0DFF864C02A
:1052B0000CF1580C3CF910C0614400F1010C0CF0E9
:1052C000FF000A28F2DB4FF00A0C91FBFCFC0FFAFE
:1052D0008CF8DFF840C0ACF86C80002100200AE0B8
:1052E000DFF830C00CF16E0C3CF910C0614400F1E5
:1052F000010C0CF0FF000A28F2DB4FF00A0C91FBC6
:10530000FCFC0FFA8CF8DFF80CC0ACF88280BDE82A
:10531000F0830000A408002010B501221921D0203C
:10532000FEF7DEFEFF2804D10CA002F043F9FF20B7
:1053300010BD14A002F03EF90A20FDF71DFD012268
:105340003821D020FEF7CCFEFF2804D115A002F0B2
:1053500031F9FF20ECE70020EAE7000043616E6EC0
:105360006F7420656E61626C6520696E746572721F
:10537000757074207375636365737366756C6C798F
:105380002E0D0A004D50553630353020736574208F
:1053900073616D706C65207261746520646F6E65F9
:1053A0002E0A00006572726F722031490D0A0000EA
:1053B00008B500200090FEF71DFDFEF739FB012324
:1053C0006A467521D020FEF75BFD40B99DF80000CC
:1053D000682809D036A002F0EDF8FF2008BD37A0FC
:1053E00002F0E8F8FF20F9E701226B21D020FEF758
:1053F00077FEFF2804D134A002F0DCF8FF20EDE7AF
:1054000003221A21D020FEF76BFEFF2804D131A021
:1054100002F0D0F8FF20E1E710221B21D020FEF798
:105420005FFEFF2804D12EA002F0C4F8FF20D5E7CC
:1054300000221C21D020FEF753FEFF2804D12BA010
:1054400002F0B8F8FF20C9E702223721D020FEF78A
:1054500047FEFF2804D128A002F0ACF8FF20BDE7EA
:1054600000223821D020FEF73BFEFF2804D125A0E2
:1054700002F0A0F8FF20B1E700226A21D020FEF759
:105480002FFEFF2804D11FA002F094F8FF20A5E70B
:10549000FEF7EAFAFF2804D11DA002F08BF8FF20E6
:1054A0009CE74FF4FA70FDF767FC002096E70000D8
:1054B0006572726F722031410D0A00006572726F61
:1054C000722031420D0A00006572726F7220314302
:1054D0000D0A00006572726F722031450D0A0000DE
:1054E0006572726F722031460D0A00006572726F2C
:1054F000722031470D0A00006572726F72203148C8
:105500000D0A00006572726F722031490D0A0000A9
:105510006572726F7220314B0D0A000010B502E007
:10552000C820FDF729FCFFF743FFFF28F8D010BD86
:1055300000B585B00121880300F07AFC01210846FE
:1055400000F046FC1020039000208DF810008DF82C
:10555000120001208DF8130002208DF8110003A91C
:105560001248FDF7DBFE0421002000F08DFE102024
:10557000009000208DF804000C208DF8050001201B
:105580008DF806006846FDF751FC0A208DF80800EA
:1055900002208DF8090000208DF80A0001208DF806
:1055A0000B0002A800F0F8FA05B000BD00000240B0
:1055B0002DE9F04104460D4616461F463B4632464D
:1055C00029462046FEF75CFCFF2805D103A001F028
:1055D000F1FFFF20BDE8F0810020FBE76572726FEC
:1055E0007220314A0D0A00002DE9FC4704460D46A1
:1055F00016461F46DDE90A895448007800287ED007
:105600000020524908700E23514A3B21D020FFF759
:10561000CFFF4F480E30FEF76DFA4D4840784C49A9
:10562000097840EA012000B24A4908804848C07819
:105630004749897840EA012000B247490880444838
:1056400040794349097940EA012000B24349088082
:105650003F48407A3E49097A40EA012000B2404979
:1056600008803B48C07A3A49897A40EA012000B272
:105670003C4908803648407B3549097B40EA012097
:1056800000B2394908800846B0F900003549B1F93F
:105690000010CDE900103248B0F900302F48B0F9C1
:1056A00000202D48B0F900102A48B0F90000FFF79B
:1056B00039FD2E48808A20802C48408D28802B4838
:1056C000B0F8400030802948B0F8560028490988D1
:1056D000401A00B238802548B0F86C002449498847
:1056E000401A00B2A8F800002048B0F88200204913
:1056F0008988401A00B2A9F8000024E0FFE71B489F
:10570000808A20801948408D28801848B0F84000D1
:1057100030801648B0F8560015490988401A00B282
:1057200038801248B0F86C0011494988401A00B21C
:10573000A8F800000D48B0F882000D498988401A89
:1057400000B2A9F80000BDE8FC870000B00000200E
:1057500090080020A4000020A6000020A80000203F
:10576000AA000020AC000020AE000020A408002009
:10577000CD000020F0B5DDE90545114EB68A068062
:105780000F4E768D0E800E4EB6F8406016800C4E91
:10579000B6F856600B4F3F88F61B36B21E80084E97
:1057A000B6F86C60074F7F88F61B36B22680044E31
:1057B000B6F88260034FBF88F61B36B22E80F0BD6C
:1057C000A4080020CD00002010B50220FFF768FCDF
:1057D00008B1002010BD1F49B1F900101D4AB2F9EF
:1057E0000620881800EBD071491009B21A4A1180BE
:1057F0001849B1F90210174AB2F90820881800EBCD
:10580000D071491009B2144A51801249B1F90410FB
:10581000104AB2F90A20881800EBD071491009B279
:105820000D4A9180B7EE000A10EE100A1146C1F839
:105830000600B7EE000A10EE100AC1F80A00B7EE33
:10584000000A10EE100AC1F80E005A2088740220D7
:10585000C0E700006A090020CD0900204FF4704025
:1058600005490880488088804FF48050C8800881AE
:1058700048810220704700006A09002000BFFEE74F
:1058800070B504460D46FDF7FFFE00287ED028784F
:1058900000F0100040B14FF42570694908804FF4C2
:1058A00048706849088007E04FF4FA70644908803E
:1058B0004FF42F7063490880287800F0010090B100
:1058C0006148016988475E48008800EE900AF8EE5A
:1058D000600A20EE200ABDEEC00A10EE100A00B2E7
:1058E0005A4908801DE0287800F0020098B1564817
:1058F0000169884752480088404200EE900AF8EE5D
:10590000E00A20EE200ABDEEC00A10EE100A00B236
:105910004E49088005E000204C4908804A488169CA
:105920008847287800F0040098B149480169884701
:1059300044480088404200EE900AF8EEE00A20EE6B
:10594000200ABDEEC00A10EE100A00B23F4948809E
:105950001CE0287800F0080090B13D4801698847B4
:105960003848008800EE900AF8EE600A20EE200A1F
:10597000BDEEC00A10EE100A00B23449488005E0BE
:10598000002032494880324881698847FDF77CFE13
:1059900002283CD1B4F9000010F1960F03DC6FF03F
:1059A0009500208005E0B4F90000962801DB9620E0
:1059B0002080B4F9020010F1960F03DC6FF095001F
:1059C000608005E0B4F90200962801DB9620608033
:1059D000204890ED000AB4F9020000EE900AF8EEBB
:1059E000E00A9FED1D1A00EEC10A1A4880ED000A78
:1059F00090ED010AB4F9000000EE900AF8EEE00A1A
:105A00009FED151A00EE810A124880ED010AB4F9E3
:105A1000020000EE100AB8EEC00A0E4880ED040A3B
:105A2000B4F9000000EE100AB8EEC00A094880ED93
:105A3000050AFDF73BFE204600F010F870BD00009F
:105A40007C0500207E050020540500200005002074
:105A500030050020200A0020CDCCCC3C70B5044697
:105A600000254648007820B1012816D0022813D11D
:105A700058E0E07980B9607A01280DD1002000F06B
:105A800073FD3F488169884701203C490870010245
:105A90003C48FDF7B9FC00256CE0607A012802D192
:105AA000681C05B200E00025322D14DD4FF4807132
:105AB0003448FDF7A7FC0020304908704FF47A7095
:105AC00031490860091D08602D4881698847002018
:105AD00000F04AFD25E02A4801698847DFED2B0ADE
